:100000000C94DF010C9407020C9407020C94070275
:100010000C9407020C9407020C9407020C9407023C
:100020000C9407020C9407020C9407020C945508D8
:100030000C9407020C9407020C9407020C9407021C
:100040000C9400080C9407020C9407020C9407020D
:100050000C9407020C9407020C9407020C940702FC
:100060000C9407020C9407020101FF030101F7033E
:100070006C00680000000000240027002A00000037
:100080000000250028002B000500893008023802F6
:100090004978681400000500380168010000175312
:1000A00044001613780016131400151020001520B4
:1000B0001000540A03E181867F3E186D830F0F0EF6
:1000C0000183866033186DC3198F1803C38E6033A4
:1000D000186DE330CF1803C39E603630CDE360CF98
:1000E0003006C79E7E3E30CDB360CF300CC6F66082
:1000F0003330D9B660CF33CFCCF66061B0DB1E6051
:10010000CF30D86CE6C061B0DB1E618F19986CC629
:10011000C063B19B0E330F0FB078C6FF7E1F1B0666
:100120001E0F53686F6F7400594F55204C4F535436
:1001300000594F5520574F4E00450068010000F60A
:10014000E8DBCFC3B8AEA49B928A827B746E6862F0
:100150005C57524E4945413E3A3734312E2C2927BF
:100160002523210A0A153A49676E6F7265006D569C
:100170000A0A504C45415345205455524E204F4693
:100180004620004C4F57204241545445525921209B
:100190000003053F213F1208120A100A0E1C0E0C24
:1001A0001E0C141A14161F161E131E1E1B1E1E1FB5
:1001B0001E3F213F3A2F3A173D173F213F181F029C
:1001C000040A041F0E04040E1F0A1F0A0E0E1F0449
:1001D000110E2E252E2F2A2E262929021F02081F36
:1001E00008150E04040E150E15151B151B04060428
:1001F000040C040000000017000300031F0A1F1670
:10020000371A1904130A153A000300000E11110ED3
:10021000000A040A040E0400300004040400100064
:100220001804031F111F121F101D151711151F078A
:10023000041F17151D1F151D01011F1F151F171561
:100240001F000A00003200040A110A0A0A110A04F7
:100250000115020E11171E051E1F150A0E110A1F89
:10026000110E1F15111F05010E111D1F041F111F57
:100270001108100F1F041B1F10101F061F1E040F54
:100280000E110E1F09060E112E1F051A1215090157
:100290001F011F101F0F180F1F0C1F1B041B031C17
:1002A00003191513001F11030418111F0002010286
:1002B0002020200001020C121E1F120C0C12120C26
:1002C000121F0C1A14041E05242A1E1F021C141DC2
:1002D0001020201D1F0814111F101E041E1E021CBA
:1002E0000C120C3E0A040C123E1E040214160A02E2
:1002F0000F120E101E0E100E1E081E120C122628B3
:100300001E322A26041E21001F00211E04010201A4
:100310003F213F172B152010204C4F4144455200E0
:10032000172B16201314000A4E6F205344206361CC
:100330007264206F720A6E6F204C4F414445522EFA
:100340004845580A0A153A45786974001D20466CDC
:10035000617368696E670A20206C6F616465722E34
:100360002E2E0A0A444F4E2754205455524E204FE9
:100370004646210000000000230026002900040456
:10038000040404040404020202020202030303033D
:100390000303010204081020408001020408102019
:1003A0000102040810200000000800020100000300
:1003B00004070000000000000000EB19C919112417
:1003C0001FBECFEFD8E0DEBFCDBF11E0A0E0B1E0AF
:1003D000E4E7FBE302C005900D92A435B107D9F71D
:1003E00024E0A4E5B1E001C01D92A533B207E1F716
:1003F00011E0CEEDD1E004C02197FE010E94A21DC4
:10040000CD3DD107C9F70E94D4110C94AD1D0C94B9
:100410000000CF92DF92EF92FF920F931F93CF9342
:10042000DF936C017A018B01C0E0D0E0CE15DF05CF
:1004300089F0D8016D918D01D601ED91FC9101906B
:10044000F081E02DC6010995892B11F47E0102C0CF
:100450002196ECCFC701DF91CF911F910F91FF90B3
:10046000EF90DF90CF900895CF93DF93EC01E88178
:10047000F9810190F081E02DCE0109951816190639
:1004800044F4E881F9810684F785E02DCE010995D1
:10049000EECFDF91CF910895CF93DF93EC01E88108
:1004A000F9810190F081E02DCE0109951816190609
:1004B00044F4E881F9810684F785E02DCE010995A1
:1004C000EECFDF91CF910895FC0182819381089551
:1004D000DC011496ED91FC9115971C968C911C975C
:1004E000882361F01A962D913C911B976217730730
:1004F0002CF01896ED91FC9119970AC020E030E09D
:1005000007C03097C9F00280F381E02D2F5F3F4F85
:1005100026173707B4F32617370771F481E01C96C6
:100520008C931C971B963C932E931A971996FC93C9
:10053000EE931897CF01089580E090E00895CF934F
:10054000DF9377FD0EC0FC012281338162177307B0
:1005500044F4EA010E946802FC01D183C08381E077
:1005600001C080E0DF91CF910895DC011496ED91F8
:10057000FC9115971C968C911C97882361F01A9614
:100580002D913C911B97621773072CF01896ED91F3
:10059000FC9119970AC020E030E007C03097C9F0FD
:1005A0000480F581E02D2F5F3F4F26173707B4F306
:1005B0002617370771F481E01C968C931C971B96C5
:1005C0003C932E931A971996FC93EE931897CF01AC
:1005D000089580E090E008950E946802009721F05D
:1005E000FC0180819181089580E090E00895CF9290
:1005F000DF92EF92FF9277FD13C0DC011296ED912E
:10060000FC9113976E177F075CF469017A010E94D1
:10061000B502FC01C082D182E282F38281E001C096
:1006200080E0FF90EF90DF90CF9008950E94B50298
:10063000009731F0FC01608171818281938108957E
:1006400060E070E0CB010895FC0182819381089500
:10065000089580E090E008950E94A81DEF92FF9217
:100660000F931F93CF93DF93DC0112962D913C9152
:1006700013971216130624F521303105A1F0EC0171
:10068000EC81FD81E280F38000811181CF010E9425
:10069000DD1AFD82EC828A819B8101979B838A838C
:1006A0001C86C8010FC0DC01ED91FC910484F58526
:1006B000E02DDF91CF911F910F91FF90EF90099462
:1006C00080E090E0DF91CF911F910F91FF90EF902C
:1006D0000895EF92FF920F931F93CF93DF93FC0146
:1006E000628173811616170664F5EC011486613079
:1006F0007105C1F0625071090E9468027C01FC0121
:1007000082819381FC01008111810E94DD1AF70131
:1007100013821282FF82EE828A819B8101979B83E2
:100720008A830DC084819581FC01008111810E9422
:10073000DD1A1D821C821F821E821B821A82C80142
:1007400002C080E090E0DF91CF911F910F91FF9068
:10075000EF9008950F931F93CF93DF9377FD3EC0E3
:10076000DC0112962D913C91139762177307B4F533
:100770006115710531F4ED91FC910684F785E02D4A
:100780000BC0215031096217730759F4DC01ED9158
:10079000FC910484F585E02DDF91CF911F910F919D
:1007A0000994EC01615071090E946802DC01129603
:1007B000ED91FC9113970081118122813381139671
:1007C0003C932E931297CF010E94DD1A8A819B8160
:1007D00001979B838A831C86C80102C080E090E059
:1007E000DF91CF911F910F910895CF92DF92EF92F9
:1007F000FF920F931F93CF93DF93DC0112966D91BD
:100800007C911397161617062CF060E070E080E0DC
:1008100090E032C0EC011C8661307105E1F062505D
:1008200071090E94B5026C01DC011496ED91FC91F6
:100830001597E080F18002811381CF010E94DD1ABB
:10084000F60115821482DF82CE828A819B81019714
:100850009B838A830FC0EC81FD81E080F18002815F
:100860001381CF010E94DD1A1D821C821F821E820D
:100870001B821A82B701C801DF91CF911F910F919E
:10088000FF90EF90DF90CF900895CF92DF92EF929C
:10089000FF920F931F93CF93DF93FC01228133814B
:1008A000121613062CF060E070E080E090E022C0A9
:1008B000EC0121303105B9F00480F581E02DC480D0
:1008C000D580E080F18002811381CF010E94DD1A82
:1008D000DD82CC828A819B8101979B838A831C86DF
:1008E000B701C80107C00190F081E02D0484F585AF
:1008F000E02D0995DF91CF911F910F91FF90EF901F
:10090000DF90CF900895EF92FF920F931F93CF93B4
:10091000DF9377FD08C0DC0112962D913C9113976F
:10092000621773072CF060E070E080E090E035C063
:10093000EC016115710531F4E881F9810684F785D0
:10094000E02D0AC0215031096217730741F4E88194
:10095000F9810484F585E02DCE0109951EC0615012
:1009600071090E94B502DC011496ED91FC91159776
:10097000E080F180028113812481358115963C93BA
:100980002E931497CF010E94DD1A8A819B810197D3
:100990009B838A831C86B701C801DF91CF911F9189
:1009A0000F91FF90EF900895CF93DF93EC0181E1D9
:1009B00091E099838883EC81FD81309741F08481B7
:1009C00095819D838C83CF010E94DD1AF4CFDF9146
:1009D000CF910895EF92FF920F931F93CF93DF93E0
:1009E000DC0112960D911C9113970115110561F40C
:1009F000ED91FC910480F581E02DDF91CF911F9165
:100A00000F91FF90EF9009947B01EC0184E090E05E
:100A10000E94481A2C813D81FC0133832283F1829C
:100A2000E0829D838C830F5F1F4F1B830A831C868C
:100A300081E0DF91CF911F910F91FF90EF9008958A
:100A4000CF92DF92EF92FF920F931F93CF93DF939A
:100A5000DC0112960D911C9113970115110571F48B
:100A6000ED91FC910480F581E02DDF91CF911F91F4
:100A70000F91FF90EF90DF90CF9009946A017B0176
:100A8000EC0186E090E00E94481A2C813D81FC0137
:100A900035832483C082D182E282F3829D838C835A
:100AA000C80101969B838A831C8681E0DF91CF91E8
:100AB0001F910F91FF90EF90DF90CF9008958F924C
:100AC0009F92AF92BF92EF92FF920F931F93CF939B
:100AD000DF93DB01BA01A901EC01EA81FB81AE17CA
:100AE000BF0734F0E881F9810480F581E02D07C06B
:100AF000109781F4E881F9810680F781E02DDF917C
:100B0000CF911F910F91FF90EF90BF90AF909F906A
:100B10008F9009944A015B018D017C0186E090E091
:100B20000E94481AEC01198218821B821A821D82C7
:100B30001C82B80161507109C7010E94B502888208
:100B40009982AA82BB82FC01248135813D832C835A
:100B5000D583C483D70112968D919C9113970196EA
:100B600013969C938E9312971C961C9281E0DF91B2
:100B7000CF911F910F91FF90EF90BF90AF909F90FA
:100B80008F9008950F931F93CF93DF93EC018B0108
:100B900084E090E00E94481AFC01138212821183C3
:100BA00000832C813D81232B29F0EE81FF819383EB
:100BB000828302C09D838C839F838E838A819B81E5
:100BC00001969B838A831C8681E0DF91CF911F91E0
:100BD0000F910895CF92DF92EF92FF920F931F93A0
:100BE000CF93DF939B01BA01DC0112964D915C918A
:100BF00013972417350734F0ED91FC910480F581AB
:100C0000E02D09C02115310579F4DC01ED91FC914D
:100C10000680F781E02DDF91CF911F910F91FF901A
:100C2000EF90DF90CF9009947B01E9018C0184E083
:100C300090E00E94481A6C01FC011182108213821C
:100C40001282BE0161507109C8010E946802D6017A
:100C50001196FC92EE92FC012281338113963C9313
:100C60002E931297D382C282D80112968D919C91B5
:100C70001397019613969C938E9312971C961C9231
:100C800081E0DF91CF911F910F91FF90EF90DF9066
:100C9000CF9008950F931F93CF93DF9300D000D090
:100CA000CDB7DEB78C0186E090E049835A836B8331
:100CB0007C830E94481ADC0115961C921E921497A0
:100CC00049815A816B817C81FC014083518362831D
:100CD0007383D80114962D913C911597232B59F0CD
:100CE0001696ED91FC9117979583848317969C93A4
:100CF0008E93169705C0F801958384839783868326
:100D0000D80112968D919C911397019613969C93FE
:100D10008E9312971C961C9281E00F900F900F906B
:100D20000F90DF91CF911F910F910895833081F043
:100D300028F4813099F08230A1F008958730A9F02D
:100D40008830B9F08430D1F4809180008F7D03C069
:100D5000809180008F7780938000089584B58F778D
:100D600002C084B58F7D84BD08958091B0008F77D7
:100D700003C08091B0008F7D8093B00008951F93D1
:100D8000CF93DF93282F30E0F901EA55FC4F84918F
:100D9000F901EE56FC4FD491F901E258FC4FC49191
:100DA000CC23C9F0162F81110E949606EC2FF0E09B
:100DB000EE0FFF1FE258FF4FA591B4918FB7F89443
:100DC000111105C09C91ED2FE095E92302C0EC9133
:100DD000ED2BEC938FBFDF91CF911F910895CF93AF
:100DE000DF9390E0FC01EE56FC4F2491FC01E258A9
:100DF000FC4F8491882361F190E0880F991FFC01DA
:100E0000EC58FF4FC591D491FC01E258FF4FA591DA
:100E1000B491611109C09FB7F8948881209582230D
:100E20008883EC912E230BC0623061F49FB7F89455
:100E30003881822F809583238883EC912E2B2C93ED
:100E40009FBF06C08FB7F894E8812E2B28838FBFF1
:100E5000DF91CF9108951F93CF93DF93182FEB016C
:100E600061E00E94EF06209711F460E004C0CF3FDC
:100E7000D10539F461E0812FDF91CF911F910C945E
:100E8000BF06E12FF0E0EA55FC4FE491E330F9F0C2
:100E900048F4E130B9F0E230A1F584B5806284BD58
:100EA000C8BD34C0E730E9F0E83019F1E43049F565
:100EB00080918000806280938000D0938B00C093EB
:100EC0008A0024C084B5806884BDC7BD1FC08091DE
:100ED0008000806880938000D0938900C093880050
:100EE00015C08091B00080688093B000C093B300BB
:100EF0000DC08091B00080628093B000C093B400B8
:100F000005C0C038D1050CF0B5CFAFCFDF91CF9180
:100F10001F9108958E3008F08E5087708064809302
:100F20007C0080917A00806480937A0080917A00BE
:100F300086FDFCCF809178002091790090E0922B83
:100F400008953FB7F89480919D0190919E01A091E2
:100F50009F01B091A00126B5A89B05C02F3F19F0B5
:100F60000196A11DB11D3FBFBA2FA92F982F882729
:100F7000820F911DA11DB11DBC01CD0142E0660F84
:100F8000771F881F991F4A95D1F708958F929F92D6
:100F9000AF92BF92CF92DF92EF92FF926B017C01F2
:100FA0000E94A1074B015C01C114D104E104F104CA
:100FB000F1F00E94A107DC01CB0188199909AA0967
:100FC000BB09883E9340A105B10570F321E0C21A28
:100FD000D108E108F10888EE880E83E0981EA11C74
:100FE000B11CC114D104E104F10419F7DDCFFF9065
:100FF000EF90DF90CF90BF90AF909F908F9008952B
:101000001F920F920FB60F9211242F933F938F933D
:101010009F93AF93BF938091A3019091A401A0915E
:10102000A501B091A60130919C0123E0230F2D373B
:1010300020F40196A11DB11D05C026E8230F0296DC
:10104000A11DB11D20939C018093A3019093A40145
:10105000A093A501B093A60180919D0190919E015E
:10106000A0919F01B091A0010196A11DB11D809397
:101070009D0190939E01A0939F01B093A001BF9109
:10108000AF919F918F913F912F910F900FBE0F9035
:101090001F9018958091A703882319F08091A903C8
:1010A00001C080E08093B40008951F920F920FB6A4
:1010B0000F9211242F933F934F935F936F937F93DE
:1010C0008F939F93AF93BF93EF93FF936091A80388
:1010D000662321F180919B018F5F80939B0190910A
:1010E000A1018917D8F09091A70381E08927809307
:1010F000A70310929B018091A201882369F080913F
:10110000020193E4899F802D1124895B8093020161
:101110000E946E1D9093A9030E944A08FF91EF91CF
:10112000BF91AF919F918F917F916F915F914F91FF
:101130003F912F910F900FBE0F901F901895FC01BB
:10114000643508F053C0403308F050C090A1742FAC
:10115000759575957595262F062E000C330B542F1B
:1011600057709230A1F4F901E955FE4F84E57802F9
:10117000E00DF11D1124808190E0052E02C09595AF
:1011800087950A94E2F78095982F91700AC0933062
:1011900041F484858170462740954170841303C0D3
:1011A00014C0911112C084E57802200D311D112464
:1011B000F901E955FE4F81E090E001C0880F5A9592
:1011C000EAF780959081892310C084E57802200D8C
:1011D000311D1124F901E955FE4F81E090E001C075
:1011E000880F5A95EAF79081892B80830895BF92E2
:1011F000CF92DF92EF92FF920F931F93CF93DF93E3
:101200001F92CDB7DEB77C01D62EC42E002E000C67
:10121000110B040F111D47FD1A954C2D0C2C000CC1
:10122000550B401751077CF4B12CB21654F46B2DBA
:101230006D0D4C2DC70129830E949F08B39429810D
:10124000F4CFC394EACF0F90DF91CF911F910F910C
:10125000FF90EF90DF90CF90BF9008956F927F92B4
:101260008F929F92AF92BF92CF92DF92EF92FF92B6
:101270000F931F93CF93DF93EC016A3019F42D8104
:101280009885A1C06D3009F4A4C01885BA84D984AA
:1012900088A083E58D150CF47FC08FE28B150CF4CC
:1012A0007BC08C8190E00197189F9001199F300DB1
:1012B0001124C9018D0D911DD7FC9A951816190698
:1012C0000CF06AC08D81819FC00111248B0D911D8E
:1012D000B7FC9A95181619060CF05EC09D2CCD2C03
:1012E000E62EF12CEC2DED190E2E000CFF0B8C814F
:1012F00090E0E817F9070CF04EC00197E817F907DE
:1013000079F0E89E9001E99E300DF89E300D112491
:10131000E20FF31F8E8D9F8DE80FF91F749001C0AF
:10132000712C6B2CAB2C2A2D2B19022E000C330B9D
:101330008D8190E0281739075CF570FE10C01130E0
:1013400031F44A2D6C2DCE010E949F081DC0012F43
:10135000212F462D692DCE010E94F70815C089A1C5
:1013600098A1891789F088A3113031F44A2D6C2D8A
:10137000CE010E949F0807C0012F212F462D692D05
:10138000CE010E94F70888A27694A394610ECBCF79
:10139000C394910EA7CF88A228853C818985329F6E
:1013A000800D112489879F81992399F0082E000CC4
:1013B000990B44E550E0239F401951091124481727
:1013C00059073CF49D818A85299F800D11248A87C5
:1013D000198681E090E0DF91CF911F910F91FF90EE
:1013E000EF90DF90CF90BF90AF909F908F907F90C5
:1013F0006F9008954F925F926F927F928F929F921B
:10140000AF92BF92CF92DF92EF92FF920F931F9312
:10141000CF93DF9300D000D01F92CDB7DEB74091BD
:101420002A0450912B0460912C0470912D042FB745
:10143000F8948091A3019091A401A091A501B0918D
:10144000A6012FBF481B590B6A0B7B0B8091290407
:1014500090E0A0E0B0E000912504109126042091D6
:1014600027043091280484179507A607B70730F49E
:10147000011511052105310509F03AC3012B022B95
:10148000032B09F033C38091C10381508E3FC0F517
:101490008091C0038130C9F58091D4038F5F609142
:1014A000D50387FD09C0082E000C990B70E06F5F13
:1014B0007F4F0E947A1D682F6093D40380E293E0EF
:1014C00090932F0480932E0488E48093300480E06E
:1014D0000E94870E89E391E09093DD038093DC0303
:1014E0001092E2031092E10381E08093D00389E03F
:1014F0008093E5031092E8031092EA031092EC0344
:101500008091C10381508E3F70F48091BF03813080
:1015100009F09AC383E193E090932F0480932E0403
:1015200088E48093300480E00E94B50F8091D0035E
:10153000882309F4ABC08091E4038111A7C0809196
:10154000DC039091DD03E091E103F091E203EE0F03
:10155000FF1FE80FF91F4591549141155105F1F412
:101560002091E003222331F01092E2031092E10374
:10157000FC0112C01092D0038091CF03882341F068
:1015800080E00E94B50FE091E103F091E2032DC0ED
:1015900080E00E94720E7AC0459154919A0136956E
:1015A00027953695279540FF51C0CA0116E09695BC
:1015B00087951A95E1F78F71952F96959695969543
:1015C00090512F70223071F1F8F4211117C08B3037
:1015D00008F08AE08093E503E091E103F091E203F3
:1015E0003196F093E203E093E103EE0FFF1F809149
:1015F000DC039091DD03E80FF91FCECF213061F7B6
:1016000060E00E941F10E8CF2330B1F0243021F7B2
:101610002091D303829F802D11248093EC0390931B
:10162000ED03DACF2091D303829F802D1124809384
:10163000E8039093E903D0CF2091D303829F802DBC
:1016400011248093EA039093EB03C6CF2F7320936A
:10165000E3038091D303859F802D11248093E403BD
:101660001092F4031092F3031092F20381E080933E
:10167000E6038093A7031092E7038091E103909122
:10168000E20301969093E2038093E1038091E603E5
:10169000882309F4EEC08091E403811103C00E9405
:1016A000720EE7C081508093E4038091F4038111AE
:1016B00046C02091F2033091F3032F5F3F4FC901E1
:1016C000880F991FE091EE03F091EF03E80FF91FE7
:1016D00065917491862F87708093F503AB01E3E0E9
:1016E00056954795EA95E1F7CA0196958795972F04
:1016F000969596959093F6038F739091D303899F57
:10170000802D11248093F40341704093A201309303
:10171000F3032093F2038091F00390E02817390738
:1017200070F02091F103222339F0821B91099093EC
:10173000F3038093F20303C080E00E94720E809155
:10174000F40381508093F4038091E70321E0280F94
:101750002093E7034091E3033091F603340F809127
:10176000DB03380F3093D1036091EA03662371F0F5
:1017700070E0822F022E000C990B0E947A1D80913E
:10178000EB03869F300D11243093D1038091D10358
:1017900090E0849664E270E00E947A1D8093D10309
:1017A0003091E5033093D2036091E803662381F022
:1017B000062E000C770B822F022E000C990B0E9434
:1017C0007A1D8091E903869F300D11243093D20356
:1017D0006091EC036623A1F0822F220F990B70E039
:1017E0000E947A1DCB0162E070E00E947A1D209178
:1017F000ED039091D203289F900D11249093D20372
:101800008091D2034F3341F08A300CF089E087FD9C
:1018100080E08093D20302C01092D203F894E0914A
:10182000D103F0E0E15CFE4FE491E093A10130913F
:10183000D2032091F7033203900111244091F50364
:101840004203C001439F900D11240090D40302C0B5
:10185000880F991F0A94E2F797FF02C081589F4FA3
:10186000880F892F881F990B8093A8038093A90361
:10187000789480913004882309F48DC08C3020F452
:101880009CE0E92EE81A01C0E12CFF24F394F092C9
:10189000000410921804109219043091FD034DE2D7
:1018A000D42E1D2D131B1E0D03E0030F2EE4412F1C
:1018B00063E088EF93E03D830E94F7083D810CEFE1
:1018C000030F1D5F202F41E0612F80E50E94F01083
:1018D000202F42E0612F83E00E94F010F092180464
:1018E000F09219040091FD0313E0100FD01ADE0CE2
:1018F00023E04D2D622F88EF93E02D830E949F08F7
:101900002D812F5F2135A9F71D0DFF24FA94F10ECB
:1019100023E04F2D622F88EF93E02D830E949F08D4
:101920002D812F5F2135A9F7035033E0D30E402FCF
:101930006D2D80E00E94D810402F6D2D83E50E9410
:10194000D81041E06D2D83E00E945A1042E06D2DC9
:1019500080E50E945A10145044E0612F80E50E94F7
:101960005A1048E0612F83E00E945A1084E080936F
:1019700001048091FD03E81A8E2D815D809302049D
:1019800080912E0490912F040E94510F8091300479
:101990008150809330048091C6039091C703892BB6
:1019A00009F47CC011E0109318041092190490916E
:1019B000FC0385E5891B8093010410920204809149
:1019C000C303813009F44DC030F09091C2038530DB
:1019D00008F05FC05AC080E00E94870E1093000498
:1019E000E1E9F1E0E491EF5FE093FC03E2E9F1E08B
:1019F000E491EF5FE093FD0383E991E09093170496
:101A0000809316041092C7031092C6031092FE032F
:101A100018EA0E94FA098823E1F383E891E00E9422
:101A2000510F6091C4037091C50380E090E04AE0DB
:101A30000E944B118EE691E00E94510F612F62953A
:101A40006F7070E080E090E04AE00E944B1183E606
:101A500091E00E94510F8091BF03813009F0FAC0DC
:101A60001DC080911B0490911C04A0911D04B09195
:101A70001E048F709927AA27BB270897A105B105D7
:101A800010F487E009C088E707C0992339F08B5F1D
:101A900003C0992319F08FE20E948C110E94110F4C
:101AA0008091FE0381110EC088EF91E0E7EAF1E03A
:101AB000DF019C011D9221503040E1F7109201049A
:101AC000109202040E94A1076093250470932604DB
:101AD00080932704909328042091210430912204BC
:101AE000621B730B7093200460931F0480E0CCC0D2
:101AF0002FB7F8948091A3019091A401A091A50122
:101B0000B091A6012FBF20912904820F911DA11D24
:101B1000B11D80932A0490932B04A0932C04B093BE
:101B20002D0480911B0490911C04A0911D04B09180
:101B30001E040196A11DB11D80931B0490931C04EB
:101B4000A0931D04B0931E04109225041092260445
:101B500010922704109228040E94A1076093210488
:101B60007093220480932304909324048091AB0308
:101B70009091AC032FE0289F8001299F100D112424
:101B800085E10E948A07800F911F24E09695879532
:101B90002A95E1F79093AC038093AB032091AA03BD
:101BA000222309F44BC06091AE03262F30E040E0C1
:101BB00050E029833A834B835C83C090AF03D12CE0
:101BC000E12CF12C4091B2035091B3034A01A12CB6
:101BD000B12C2091B0033091B1032901612C712CFB
:101BE0008217930728F09C014817590708F49A01B7
:101BF000C901A0E0B0E09C01AD01241935094609F6
:101C0000570969817A818B819C816C197D098E09C4
:101C10009F090E945E1DA5019401241935094609FA
:101C200057090E94D11BC20ED31EE41EF51EC0929E
:101C3000AD036C2D70E085E00E942B070E949E0E84
:101C40000E94971181E020C0893209F06CCC0E947B
:101C5000800F69CC115009F0DCCE60E070E085E0C7
:101C60000E942B0783B7817F846083BF83B7816025
:101C700083BF83B7816083BF889583B78E7F83BF1F
:101C800083B78E7F83BFC5CE0F900F900F900F90BC
:101C90000F90DF91CF911F910F91FF90EF90DF9008
:101CA000CF90BF90AF909F908F907F906F905F90FC
:101CB0004F900895BC01009791F0FC010190002025
:101CC000E9F73197AF01481B590BE091F803F09108
:101CD000F9030280F381E02D88EF93E0099480E01E
:101CE00090E00895811112C01092E6031092E4036F
:101CF0001092F3031092F2031092E7031092A903DB
:101D00001092A8031092A7030C944A080895811119
:101D100014C01092E6031092E4031092F3031092A1
:101D2000F2031092E7031092A9031092A8031092F5
:101D3000A7030E944A081092D0030895CF92DF9221
:101D4000EF92FF920F931F93CF93DF93C4EBD3E0F7
:101D50000BEB13E0FF24FA9497E0E92EE00E62E02B
:101D600088810E94EF06288130E0F901EA55FC4F96
:101D70008491F901EE56FC4FC490F901E258FC4FF2
:101D8000D490DD2071F081110E949606ED2DF0E0D7
:101D9000EE0FFF1FEC58FC4FA591B491EC91EC2194
:101DA000B1F4F80180818F5F808360E088810E94B8
:101DB000EF0621960F5F1F4FE012D1CFDF91CF9139
:101DC0001F910F91FF90EF90DF90CF900895F80151
:101DD0008081882371F3F8018F3F11F41082E5CFE1
:101DE000F082E3CFCF93C82FF89460E0809107048E
:101DF0000E94BF068091080418161CF460E00E943F
:101E0000BF06CEBD00000DB407FEFDCF8EB580919C
:101E1000080418161CF461E00E94BF067894CF9164
:101E200008950F931F93CF93809104048F5F809345
:101E3000040407EA11E0C0E08C2F80640E94F20ED7
:101E400080E80E94F20E61E0809107040E94BF06C4
:101E50008091080418161CF460E00E94BF0680E020
:101E600090E0F801E80FF91F20812EBD00000DB4AD
:101E700007FEFDCF2EB501968435910591F780912F
:101E8000080418161CF461E00E94BF06CF5F0C5ACC
:101E90001F4FC63089F680E4CF911F910F910C94AB
:101EA000F20E0F931F93CF93DF938C01C0E0D0E02D
:101EB000F801EC0FFD1F6491662371F0E091F803C7
:101EC000F091F9030190F081E02D88EF93E00995FE
:101ED000892B11F02196ECCFCE01DF91CF911F918C
:101EE0000F910895CF93DF930E94510FEC0189E485
:101EF00091E00E945A0E8C0F9D1FDF91CF910895A3
:101F000088EF91E0E7EAF1E0DF019C011D922150AA
:101F10003040E1F710920104109202048CE493E047
:101F20000E94510F0E94110F8CB583608CBD8DB53E
:101F30008E7F8DBD8CE491E0EEEFFFE3099510926A
:101F4000FE0387E293E00E94720F0E94110F0E942D
:101F50009E0E8091BF03813039F062E370E080E033
:101F600090E00E94C607F3CF0895AF92BF92CF9240
:101F7000DF92EF92FF920F931F93CF93DF93C82EC0
:101F8000D12CE601C655DC4F9DA1992309F44CC024
:101F90007E019FEFE91AF90AF70195A1911144C05A
:101FA0009EA58601000F111F06551C4FF80134A590
:101FB00025A5E32FF22FE90FF11DE90FF11D259162
:101FC00034912F3FFFEF3F0711F41DA22DC039AB15
:101FD000F601EE0FFF1FEC54FC4F3327220F331F87
:101FE00005A0F6A1E02DE20FF31FA590B49081119A
:101FF00017C00E94870EF801B3AAA2AAF601EE0F3D
:10200000FF1FE454FC4F16A215A281E0F70185A33F
:1020100089E08BAF1EAEFE017B9615A2329615A20B
:1020200029968DA18F5F8DA3DF91CF911F910F9185
:10203000FF90EF90DF90CF90BF90AF90089570E049
:10204000DB01AA0FBB1FA655BC4FD4962C91D49789
:10205000D5969C91D597E22FF92FE80FF11DE80F47
:10206000F11D259134915F9696963C932E9395970A
:10207000F901859194919091D303989F802D11241B
:1020800066557C4FFB01B19685A3F901A591B491EA
:102090004B2F50E0E82FF0E04E175F0720F4F901D6
:1020A00025913491832FFB01B296899F802D1124B5
:1020B00085A30895AF92BF92CF92DF92EF92FF92E5
:1020C0000F931F93CF93DF93182F062FC1E0D3E018
:1020D0008AEFD82E9EEFE92E842F8470C82E842F8D
:1020E0008270B82E842F8870A82E4170F42E8C2F09
:1020F000880F8F5FE80ECC2081F04D2F400F6C2FA2
:10210000610F88EF93E00E949F084C2F400F6D2FC6
:10211000610F88EF93E00E949F08BB2081F0402F61
:102120004D1B6C2F610F88EF93E00E949F08402F9A
:102130004C1B6D2F610F88EF93E00E949F08AA202F
:1021400081F04C2F400F612F6D1B88EF93E00E94B0
:102150009F084D2F400F612F6C1B88EF93E00E946A
:102160009F08FF2081F0402F4C1B612F6D1B88EFD3
:1021700093E00E949F08402F4D1B612F6C1B88EF3E
:1021800093E00E949F08CD1744F4E7FC04C0D150AF
:10219000D394D394ED0CCF5FAACFDF91CF911F9151
:1021A0000F91FF90EF90DF90CF90BF90AF90089588
:1021B0000F931F93CF93DF93182F062FD42FC0E0D8
:1021C000CD174CF44C2F400F612F88EF93E00E9405
:1021D0009F08CF5FF5CFDF91CF911F910F910895A9
:1021E0009F92AF92BF92CF92DF92EF92FF920F93A6
:1021F0001F93CF93DF93F82EE62EB22E03E0020F4B
:10220000D0E0C3E08AEFC82E1EEF842F8170982E95
:10221000AA24A394A20E4270D42EDF5F802F8B19C4
:10222000180F992081F04C2F440F4A0D6E2D6C1B16
:102230008D2F8F0D0E94D810402F6E2D6D1B8C2F6F
:102240008F0D0E94D810DD2081F04C2F440F4A0DD5
:102250006E2D6C1B8F2D8D1B0E94D810402F6E2D64
:102260006D1B8F2D8C1B0E94D810DC1744F417FDBA
:1022700004C0C150C394C3941C0D0E5FCECFDF9138
:10228000CF911F910F91FF90EF90DF90CF90BF9073
:10229000AF909F9008958F929F92AF92BF920F93AD
:1022A0001F93CF93DF93CDB7DEB7A1970FB6F89406
:1022B000DEBF0FBECDBF19A2423008F44AE08E0146
:1022C0000F5D1F4F842E912CA12CB12CA5019401E0
:1022D0000E94031CE62FB901CA0101501109EA301E
:1022E00014F4E05D01C0E95CD801EC93232B242BAE
:1022F000252B61F7C8010E945A0EA1960FB6F894DB
:10230000DEBF0FBECDBFDF91CF911F910F91BF9068
:10231000AF909F908F900895E091F803F091F903AA
:102320000190F081E02D682F88EF93E0099480916F
:10233000C6039091C703892BB1F18091CE038F71B1
:1023400069F584E10E948A07BC01990F880B990BFB
:102350000E94651C26EE3FE34EEC50E40E94C91C2F
:102360000E94341C9B017093C5036093C403672BC8
:1023700091F084E08093C303E6ECF3E080E04191C8
:1023800051912417350718F48093C30308958F5F84
:102390008430A9F703C08FEF8093C3038091CE03ED
:1023A0008F5F8093CE030895CF93DF93CDB7DEB7D1
:1023B000A8970FB6F894DEBF0FBECDBF789484B552
:1023C000826084BD84B5816084BD85B5826085BD31
:1023D00085B5816085BD80916E00816080936E00BF
:1023E00010928100809181008260809381008091B1
:1023F0008100816080938100809180008160809362
:1024000080008091B10084608093B1008091B00021
:1024100081608093B00080917A00846080937A001C
:1024200080917A00826080937A0080917A00816046
:1024300080937A0080917A00806880937A0010926D
:10244000C10082E38093290481E090E0A0E0B0E045
:102450008093250490932604A0932704B093280426
:102460008FEF80931A04E0E8F7E72591349121304B
:10247000304C09F049C0E6E9F7E7E491E093030442
:10248000E7E9F7E7E491E093AE03E8E9F7E7E491E1
:10249000E093AF03E9E9F7E7859194919093B10355
:1024A0008093B003EBE9F7E7859194919093B303A0
:1024B0008093B20387E08093D503EEE9F7E7E491D8
:1024C000E093D403EFE9F7E7E491E0931A04E0EA3C
:1024D000F7E7859194919093C7038093C603E2EA4E
:1024E000F7E7859194919093C9038093C803E4EA38
:1024F000F7E7859194919093CB038093CA03E6EA22
:10250000F7E7859194912CC09CE39093030410927B
:10251000AE038093AF0380E293E09093B103809386
:10252000B00384ED93E09093B3038093B20387E00C
:102530008093D5038093D4038CEA9DE09093C703E6
:102540008093C6038EED9DE09093C9038093C803EA
:1025500084E79EE09093CB038093CA038CE39FE0D3
:102560009093CD038093CC0311E01093AA036FEFF7
:1025700070E085E00E942B0788E08093B40389E037
:102580008093B50387E08093B60386E08093B7031A
:1025900004E00093B80382E08093B90381E1809363
:1025A000BA030E949E0E8CE39FE09093C503809334
:1025B000C4030093C3031093CE038BE080930604FF
:1025C0008DE08093050480E1809307048EE0809382
:1025D00009048FE0809308041093000410931804FA
:1025E000109219041093FF03E1E9F1E0E491EF5F29
:1025F000E093FC03E2E9F1E0E491EF5FE093FD0397
:1026000083E991E090931704809316041FB7F89420
:1026100080919001811127C0E8E8F3E08491ECE912
:10262000F3E09491E82FF0E0EE0FFF1FEC58FF4F1E
:10263000A591B491EC919E2321F461E08AE00E947F
:10264000BF0661E08AE00E94EF068CB580618CBD18
:102650008CB580648CBD61E08DE00E94EF0661E086
:102660008BE00E94EF06809190018F5F8093900134
:102670001FBF8CB58F7D8CBD8CB58C7F81608CBD70
:102680008DB581608DBD8CB58C608CBD61E0809115
:1026900006040E94EF0661E0809105040E94EF06A7
:1026A00061E0809107040E94EF06809109041816EA
:1026B0001CF461E00E94EF068091080418161CF4D7
:1026C00061E00E94EF0680910904181674F460E03E
:1026D0000E94BF066AE070E080E090E00E94C607BA
:1026E00061E0809109040E94BF0680910504082ED4
:1026F000000C990BFC01E258FC4FE491F0E0EE0F66
:10270000FF1FE258FF4F2591349130930D04209321
:102710000C04FC01EE56FC4FE491E093130480910D
:102720000604082E000C990BFC01E258FC4FE491C2
:10273000F0E0EE0FFF1FE258FF4F259134913093E8
:102740000B0420930A04FC01EE56FC4FE491E09345
:10275000120480910804082E000C990BFC01E25829
:10276000FC4FE491F0E0EE0FFF1FE258FF4F259180
:10277000349130930F0420930E04FC01EE56FC4F6D
:10278000E491E093140480910704082E000C990B47
:10279000FC01E258FC4FE491F0E0EE0FFF1FE2581D
:1027A000FF4F259134913093110420931004FC01C4
:1027B000EE56FC4FE491E093150481E20E94F20E84
:1027C00084E10E94F20E8091030487FF03C08FE72B
:1027D000809303048091030480680E94F20E80E2DB
:1027E0000E94F20E8CE00E94F20E0E94110F11E086
:1027F0001093D30384E08093F70380E790E09093F5
:10280000DF038093DE0360E080E00E941F1061E040
:1028100070E083E00E942B078091B100887F816087
:102820008093B100F8941092800010928100109271
:1028300085001092840088E191E090938900809354
:102840008800809181008860809381008091810060
:1028500081608093810080916F00826080936F001F
:1028600078940E9497118091C003813019F41092DE
:10287000D4031CC08091C3038823C9F380E00E9465
:10288000870E88E890E09093DD038093DC0310923C
:10289000E2031092E1031093D00389E08093E503F3
:1028A0001092E8031092EA031092EC0380911A044C
:1028B000882309F4A2C181E0809300041092FF03F1
:1028C0001092FE031092C20380931804809319049F
:1028D0000E94FA098823E1F3E2E2F1E08491E2EB5D
:1028E000F0E08491E3EBF0E0849010911804082E5E
:1028F000000C990B5C01F7E0AF0EB11CB7FE04C0F1
:102900005C012EE0A20EB11C23E0B594A7942A9599
:10291000E1F71816190614F1109201043CE0309307
:10292000020482E291E00E94510F8091FC03982FF3
:10293000990F890F81958D5A809301048091FD0331
:10294000982F990F890F8195835D80930204809160
:102950001B0484FFB8C08EEA90E0B7C01814E4F6F8
:10296000482D41330CF040E38535910514F084E5A2
:1029700090E00091040450E027EA31E091E064EB3C
:1029800070E0842E440F9908BB24E52FF0E0E81591
:10299000F90514F6FB0144911130E9F4D90168946A
:1029A000772477F8672C642219F06C90692A6C926E
:1029B000672C712C230155944794742C452829F4D5
:1029C000319644916894772477F811966A2E621AAA
:1029D000681640F36FC0111120C0792E7094FB016E
:1029E0002901A0E86A2EA62DA42321F0D2013C9053
:1029F00037203C92A62DB0E0B595A7956A2EAB2B5B
:102A000021F431964491A0E86A2EBFEF4B1A5B0A7D
:102A1000A42DA21BA81738F34DC0133071F5692EF1
:102A20006094FB01D9016894222427F8722E5A2E53
:102A3000521A442E422051F050264C9050FE03C0B2
:102A4000542C592A02C0542C56205C92312C21015E
:102A5000559447945FA24EA22EA0452829F43196A2
:102A600044916894222427F811964A2E4718481654
:102A7000F0F25524539405251DC0FB01D90168943B
:102A8000772477F8672C642219F06C9069266C9291
:102A9000672C712C130135942794722C232829F468
:102AA000319644916894772477F811966A2E621AC9
:102AB000681640F3990F19F42C5A3F4F91E05F5F6D
:102AC0006A0D7B1D62CF8AEA90E00E94720F8091AE
:102AD000FC03982F990F890F81958D5A80930104DB
:102AE000809102048F5F809302048091D403882335
:102AF00019F086EA90E002C082EA90E00E94720F2C
:102B00008091FC03982F990F890F81958D5A80939E
:102B10000104809102048F5F809302048EE990E0AB
:102B20000E94720F8091C003813059F58091D403C7
:102B30008F5F6091D50387FD09C0082E000C990BAB
:102B400070E06F5F7F4F0E947A1D682F6093D403FF
:102B500080E00E94870E29E331E03093DD0320936B
:102B6000DC031092E2031092E10331E03093D003D2
:102B700089E08093E5031092E8031092EA03109233
:102B8000EC038091BF038130B9F020911A04822FA9
:102B900090E0A0E0B0E040911B0450911C046091D3
:102BA0001D0470911E04481759076A077B0708F433
:102BB00088C32F3F09F485C38FEF80931A0480E008
:102BC0000E94870E80E00E94870E86E990E0909335
:102BD000DD038093DC031092E2031092E10381E0B5
:102BE0008093D00399E09093E5031092E80310924C
:102BF000EA031092EC038093C2038090C403909088
:102C0000C50380949094A12CB12C0E94A1072B01A4
:102C10003C010E94A107A3019201209530954095A7
:102C2000509560957095809590950E945E1D9B01D2
:102C3000AC01C501B4010E945E1D2B013C018090D6
:102C4000AB039090AC03A12CB12C0E94A107DC0136
:102C5000CB01880D991DAA1DBB1DBC01CD01640DC2
:102C6000751D861D971D611571058105910511F072
:102C70000E94C81B00E310E05AE0852E912CC80189
:102C8000B4010E947A1D5B019CEF692E712CC30177
:102C9000B4010E947A1D6B017501B701A60188E598
:102CA00091E00E944A0644E5640E711C80EA6816B1
:102CB00082E0780661F7005D1F4F003C1105F9F6D0
:102CC00024E6422E512C612C712C32E0232E312C23
:102CD00043E0842E912C80E2E82EFF24F3940E949E
:102CE000FA09882309F4E6C280919A018111CFC2C2
:102CF00000E010E0A12CB12C809178019091790135
:102D0000801B910BA816B9069CF5B50183E891E0EC
:102D10000E94EC02B50186E791E00E9416036C0167
:102D2000AFEFCA1ADA0AB50186E791E00E941603EE
:102D30007AA369A3DCA2CBA229A13AA14BA15CA1F1
:102D4000B50186E791E00E94F702B50186E791E0C0
:102D50000E94160397FDBDC2B50186E791E00E946F
:102D60001603C1970CF0B5C2BFEFAB1ABB0AC4CFB4
:102D700000E010E01FA21EA280916B0190916C01F7
:102D8000801B910B2EA13FA1281739070CF094C08E
:102D90006EA17FA183E891E00E94EC028130910551
:102DA000E1F1E4F4892B09F070C06EA17FA189E6FE
:102DB00091E00E9416036C01E1E0CE1AD1086EA1E9
:102DC0007FA189E691E00E9416037A8B698BDC8AE9
:102DD000CB8A29893A894B895C8951C08230910517
:102DE000A9F1039709F051C06EA17FA189E691E096
:102DF0000E9416035B016C016EA17FA189E691E040
:102E00000E941603DB011196BE8FAD8FD8A2CF8E24
:102E10002D8D3E8D4F8D58A132C06EA17FA189E6C8
:102E200091E00E9416036C01FFEFCF1ADF0A6EA13A
:102E30007FA189E691E00E9416037E8B6D8BD88E70
:102E4000CF8A2D893E894F89588D19C06EA17FA1E7
:102E500089E691E00E9416035B016C016EA17FA1DF
:102E600089E691E00E9416039B01215031093A8FB7
:102E7000298FDC8ECB8E298D3A8D4B8D5C8D6EA18A
:102E80007FA189E691E00E94F7026EA17FA189E609
:102E900091E00E94160397FD27C26EA17FA189E6EB
:102EA00091E00E941603C1970CF01EC2EEA1FFA193
:102EB0003196FFA3EEA360CF8091BB03813009F46C
:102EC00022C28091BD03813009F42BC2809195010B
:102ED0009091960103970CF4A5C0209100013091C8
:102EE000010180915401909155012330310589F5FC
:102EF0008A33910564F13092010120920001C12CC6
:102F0000D12C80915A0190915B01C816D9060CF022
:102F10004EC0B60188E591E00E9416038C010F5F58
:102F20001F4FB60188E591E00E9416037A876987F2
:102F30001C870B8729853A854B855C85B60188E51A
:102F400091E00E94F7023FEFC31AD30ADACF01964D
:102F500039C08A319105ACF590920101809200014F
:102F6000C12CD12C80915A0190915B01C816D906D1
:102F7000F4F4B60188E591E00E9416038C010F5F1E
:102F80001F4FB60188E591E00E9416037E876D878A
:102F9000188B0F872D853E854F855889B60188E5AA
:102FA00091E00E94F7024FEFC41AD40ADBCF809160
:102FB00056019091570101969093570180935601C5
:102FC00005C001979093550180935401109294018C
:102FD0001092930100E010E080915A0190915B0102
:102FE00008171907DCF4B80188E591E00E94160380
:102FF0009B01AC01E0910001F0910101339719F4BC
:103000002F5F3F4F03C09B0121503109B80188E574
:1030100091E00E94F7020F5F1F4FDECF10929601E2
:10302000109295018091950190919601019690934F
:1030300096018093950180919101909192018B303E
:1030400091058CF100E010E080915A0190915B01B4
:10305000081719071CF5B80188E591E00E941603CE
:103060005B016C010E94C31BA30192010E94D11B52
:10307000633371058105910574F0BE82AD82C6018E
:10308000019698878F834D815E816F81788586E771
:1030900091E00E944A060F5F1F4FD6CF1092920117
:1030A0001092910105C00196909392018093910135
:1030B0008091BF03813009F442C100E010E0C12CCF
:1030C000D12C80916B0190916C0108171907B4F510
:1030D0001FA21EA280915A0190915B018C199D093B
:1030E0002EA13FA12817390734F5B80189E691E0F0
:1030F0000E9416035B016EA17FA188E591E00E940A
:103100001603A616B70681F4B80189E691E00E947D
:1031100016035C016EA17FA188E591E00E94160371
:10312000A816B90609F422C12EA13FA12F5F3F4F77
:103130003FA32EA3CFCF0F5F1F4FC3CF80915A0164
:1031400090915B01892B09F43FC000E010E0809171
:1031500078019091790108171907E4F4B80186E71E
:1031600091E00E94160320916501309166012617B7
:10317000370769F4B80186E791E00E9416032091B1
:103180006701309168012817390709F4FFC00F5F04
:103190001F4FDDCF00E010E080915A0190915B015C
:1031A00008171907ACF4B80188E591E00E941603EE
:1031B00020916701309168012817390711F4F092C6
:1031C0009A010F5F1F4FE8CFF0929901F0929A0198
:1031D000409167016091650188EF93E00E949F082C
:1031E00000E010E080916B0190916C0108171907C5
:1031F000A4F4B80189E691E00E941603482FB801B3
:1032000089E691E04DA30E9416034DA188EF93E05B
:103210000E949F080F5F1F4FE5CF00E010E08091F4
:1032200078019091790108171907A4F4B80186E78D
:1032300091E00E941603482FB80186E791E04DA364
:103240000E9416034DA188EF93E00E949F080F5F34
:103250001F4FE5CF00E010E080915A0190915B0193
:10326000081719073CF5B80188E591E00E9416039C
:10327000482FB80188E591E04DA30E9416034DA1A7
:1032800088EF93E00E949F080F5F1F4FE5CF80916A
:103290009901882339F081E391E090932F04809382
:1032A0002E0406C0A8E2B1E0B0932F04A0932E0430
:1032B000E0923004E0E0F0E0309709F410CD099599
:1032C0000ACD8091C103813009F002CB0E94800FAA
:1032D000FFCA0F5F1F4FB50186E791E00E9483048C
:1032E000F1E0AF1AB10840CD0F5F1F4F6EA17FA173
:1032F00089E691E00E9483042EA13FA1215031096B
:103300003FA32EA3D3CD30929801209297018091B4
:103310006501909166010197909366018093650124
:10332000D0CD8091650190916601019690936601E0
:10333000809365019092980180929701C7CD80910A
:10334000670190916801A0916501B0916601BA830F
:10335000A983FC013197FC83EB8349815A816B81FE
:103360007C8189E691E00E944A06A7CEFFEFCF1A42
:10337000DF0A6EA17FA188E591E00E9483042EA15F
:103380003FA1215031093FA32EA3CECEF0929A0146
:10339000FECE86E791E00E94D40488E591E00E9489
:1033A000D40489E291E09093840180938301809119
:1033B000870190918801009751F0FC0122813381AF
:1033C00030938801209387010E94DD1AF0CF89E6AF
:1033D00091E00C94D404E9E6F1E081E191E091837D
:1033E00080831582148217821682138212821186BC
:1033F0001086138612861486E3E8F1E029E231E0B4
:1034000031832083158214821782168213821282DE
:1034100011861086138612861486E8E5F1E0918302
:10342000808315821482178216821382128211867B
:103430001086138612861486E6E7F1E09183808376
:1034400015821482178216821382128211861086C8
:103450001386128614861092FB031092FA0381E4FD
:1034600091E09093F9038093F803E5E6F1E08AE2B6
:1034700090E0918380832BE230E033832283E4E584
:10348000F1E09183808384E090E0938382830895C8
:10349000CF93DF938230910510F482E090E0E091C9
:1034A0003304F091340420E030E0C0E0D0E0309705
:1034B00011F14081518148175907C0F04817590749
:1034C00061F482819381209719F09B838A832BC0BA
:1034D000909334048093330426C02115310519F0EC
:1034E0004217530718F49A01BE01DF01EF01028071
:1034F000F381E02DDCCF2115310509F1281B390BB3
:103500002430310590F412968D919C91139761159A
:10351000710521F0FB019383828304C090933404EE
:1035200080933304FD01329644C0FD01E20FF31F86
:1035300081939193225031092D933C933AC020916D
:10354000310430913204232B41F420910501309154
:10355000060130933204209331042091030130910D
:1035600004012115310541F42DB73EB74091070103
:1035700050910801241B350BE0913104F091320485
:10358000E217F307A0F42E1B3F0B2817390778F03A
:10359000AC014E5F5F4F2417350748F04E0F5F1F99
:1035A00050933204409331048193919302C0E0E040
:1035B000F0E0CF01DF91CF9108950F931F93CF9348
:1035C000DF93009709F48CC0FC01329713821282BA
:1035D00000913304109134040115110581F4208108
:1035E0003181820F931F20913104309132042817CA
:1035F000390779F5F0933204E093310471C0D801B2
:1036000040E050E0AE17BF0750F412962D913C9168
:103610001397AD012115310509F1D901F3CF9D01B2
:10362000DA013383228360817181860F971F8217AD
:10363000930769F4EC0128813981260F371F2E5F2B
:103640003F4F318320838A819B8193838283452BE3
:1036500029F4F0933404E093330442C01396FC93AE
:10366000EE931297ED01499159919E01240F351F58
:10367000E217F30771F480819181840F951F029600
:1036800011969C938E938281938113969C938E9333
:103690001297E0E0F0E0D80112968D919C9113977B
:1036A000009719F0F8018C01F6CF8D919C9198014B
:1036B0002E5F3F4F820F931F2091310430913204CF
:1036C0002817390769F4309729F4109234041092BE
:1036D000330402C013821282109332040093310427
:1036E000DF91CF911F910F9108958F929F92AF928A
:1036F000BF92CF92DF92EF92FF92CF93DF93EC01D4
:10370000688179818A819B816115710581059105A7
:1037100021F464E279ED8BE597E02DE133EF41E0B0
:1037200050E00E94D11B49015A019B01AC01A7EA5C
:10373000B1E40E94F01B6B017C01ACEEB4EFA5017B
:1037400094010E94FE1BDC01CB018C0D9D1DAE1D62
:10375000BF1DB7FF03C00197A109B04888839983B3
:10376000AA83BB83BC01CD019F77DF91CF91FF90EE
:10377000EF90DF90CF90BF90AF909F908F90089583
:103780000E94751B089589E091E00E94751B0895C1
:103790006093090170930A0180930B0190930C01CF
:1037A0000895052E97FB1EF400940E94E81B57FD18
:1037B00007D00E94031C07FC03D04EF40C94E81BB6
:1037C00050954095309521953F4F4F4F5F4F08954D
:1037D00090958095709561957F4F8F4F9F4F08957D
:1037E0000E94251CA59F900DB49F900DA49F800D55
:1037F000911D11240895B7FF0C94F01B0E94F01B3B
:10380000821B930B0895A1E21A2EAA1BBB1BFD017C
:103810000DC0AA1FBB1FEE1FFF1FA217B307E407AF
:10382000F50720F0A21BB30BE40BF50B661F771F07
:10383000881F991F1A9469F76095709580959095E7
:103840009B01AC01BD01CF010895A29FB001B39FC0
:10385000C001A39F700D811D1124911DB29F700D99
:10386000811D1124911D08950E94A81C88F09F5766
:1038700098F0B92F9927B751B0F0E1F0660F771F94
:10388000881F991F1AF0BA95C9F714C0B13091F08A
:103890000E94C21CB1E008950C94C21C672F782FBF
:1038A0008827B85F39F0B93FCCF38695779567954F
:1038B000B395D9F73EF490958095709561957F4FBB
:1038C0008F4F9F4F0895E89409C097FB3EF4909561
:1038D0008095709561957F4F8F4F9F4F9923A9F0E9
:1038E000F92F96E9BB279395F69587957795679578
:1038F000B795F111F8CFFAF4BB0F11F460FF1BC0BC
:103900006F5F7F4F8F4F9F4F16C0882311F096E94E
:1039100011C0772321F09EE8872F762F05C06623FC
:1039200071F096E8862F70E060E02AF09A95660FB5
:10393000771F881FDAF7880F9695879597F908956E
:1039400057FD9058440F551F59F05F3F71F0479550
:10395000880F97FB991F61F09F3F79F08795089535
:10396000121613061406551FF2CF4695F1DF08C054
:10397000161617061806991FF1CF86957105610571
:1039800008940895E894BB2766277727CB0197F919
:1039900008950E94DC1C0C944D1D0E943F1D38F0C0
:1039A0000E94461D20F0952311F00C94361D0C94B6
:1039B0003C1D11240C94C31C0E94A01C70F3959F05
:1039C000C1F3950F50E0551F629FF001729FBB2716
:1039D000F00DB11D639FAA27F00DB11DAA1F649FB2
:1039E0006627B00DA11D661F829F2227B00DA11D65
:1039F000621F739FB00DA11D621F839FA00D611DEB
:103A0000221F749F3327A00D611D231F849F600D0B
:103A1000211D822F762F6A2F11249F5750409AF034
:103A2000F1F088234AF0EE0FFF1FBB1F661F771FC0
:103A3000881F91505040A9F79E3F510580F00C948B
:103A4000361D0C94C31C5F3FE4F3983ED4F3869577
:103A500077956795B795F795E7959F5FC1F7FE2B2B
:103A6000880F911D9695879597F9089597F99F6707
:103A700080E870E060E008959FEF80EC08950024F6
:103A80000A941616170618060906089500240A94C3
:103A900012161306140605060895092E0394000C49
:103AA00011F4882352F0BB0F40F4BF2B11F460FFD8
:103AB00004C06F5F7F4F8F4F9F4F0895DB018F933F
:103AC0009F930E94F01BBF91AF91A29F800D911D0B
:103AD000A39F900DB29F900D11240895991B79E03A
:103AE00004C0991F961708F0961B881F7A95C9F78E
:103AF0008095089597FB072E16F4009407D077FD64
:103B000009D00E948E1D07FC05D03EF4909581954A
:103B10009F4F0895709561957F4F0895AA1BBB1B19
:103B200051E107C0AA1FBB1FA617B70710F0A61BBD
:103B3000B70B881F991F5A95A9F780959095BC01DE
:103B4000CD010895EE0FFF1F0590F491E02D09942B
:103B500081E090E0F8940C94AD1D11E0CEEDD1E041
:103B600004C0FE010E94A21D2196CF3DD107C9F7D6
:043B7000F894FFCFF7
:103B74000300010000350480000100000000000083
:103B84000024035F054A062005F7028304F5034574
:103B94000416033402000000006402EA05C205EAC8
:103BA400049F02AA0369032E03EC024C02000000E6
:103BB400002E090902290328030D0A004C4F414431
:043BC4004552000066
:00000001FF
